:020000040800F2
:100000000004002047010008D5050008D7050008B6
:10001000DB050008DF050008E3050008000000001C
:10002000000000000000000000000000E7050008DC
:10003000E905000800000000EB050008ED050008D8
:1000400067010008670100086701000867010008F0
:1000500067010008670100086701000867010008E0
:1000600067010008670100086701000867010008D0
:1000700067010008670100086701000867010008C0
:1000800067010008670100086701000867010008B0
:1000900067010008670100086701000867010008A0
:1000A0006701000867010008670100086701000890
:1000B0006701000867010008670100086701000880
:1000C0006701000867010008670100086701000870
:1000D0006701000867010008670100086701000860
:1000E0006701000867010008670100086701000850
:1000F0006701000867010008670100086701000840
:10010000670100086701000867010008670100082F
:10011000670100086701000867010008670100081F
:10012000670100086701000867010008670100080F
:10013000DFF80CD001F052FD004800478D030008A5
:10014000B0020020704708488047084981F30888BA
:1001500007480047FEE7FEE7FEE7FEE7FEE7FEE7AB
:10016000FEE7FEE7FEE7FEE745010008B0020020DB
:100170003101000808B50121080300F03FFE01210C
:10018000C42000F03BFE1020ADF8000003208DF8E5
:10019000020010208DF803006946D84800F092FB59
:1001A0002020ADF8000018208DF803006946D348E0
:1001B00000F088FB4020ADF800006946CF4800F011
:1001C00081FB8020ADF800006946CC4800F07AFB46
:1001D0001021CA4800F023FC08BD00B585B00020FE
:1001E000ADF800004FF48270ADF802000020ADF8C9
:1001F00004000220ADF806000120ADF8080040021E
:10020000ADF80A000820ADF80C000020ADF80E0093
:100210000720ADF810006946B94801F037F8012110
:10022000B74801F0D0F805B000BD0146B54A525CB0
:100230003A2A04DAB34A525C1207100E04E0B14ABB
:10024000525CD21F1207100E4A1CD1B2AD4A525C4A
:100250003A2A05DAAB4A525C303A0244D0B204E0A2
:10026000A84A525C373A0244D0B270471FB5A6A4E0
:100270001ECC8DE81E00102806DA3021A64A117027
:100280001DF8001051700AE0694601EB1011097861
:10029000A14A117000F00F011DF8011051701FBD2F
:1002A00000BF00BF00BF00BF00BF00BF00BF00BF56
:1002B00000BF00BF00BF00BF00BF00BF00BF00BF46
:1002C0007047964AB0FBF2F152124A43A0EB42202B
:1002D00001F13002904B1A70914AB0FBF2F1121208
:1002E0004A43A0EB022001F130025A708D4AB0FB64
:1002F000F2F1D2114A43A0EBC21001F130029A7020
:10030000894AB0FBF2F192114A43A0EB821001F14D
:100310003002DA70854AB0FBF2F152114A43A0EB89
:10032000421001F130021A7142F21072B0FBF2F188
:1003300012114A43A0EB021001F130025A714FF43E
:100340007A72B0FBF2F101EB4102C2EBC112A0EBF9
:10035000C20001F130029A716422B0FBF2F101EBAC
:10036000C10202EB0112A0EB820001F13002DA714E
:100370000A22B0FBF2F101EB8102A0EB420001F195
:1003800030021A7200F130025A72704701F044F9DB
:1003900000F02EF966A001F033FC6CA1744800F067
:1003A000A1F974A1724800F09DF9FFF7E3FEFFF791
:1003B00014FF78A16E4800F095F901F0E6FB9BE090
:1003C0007949262001F0C2FA0028F8D1764801F0D8
:1003D00098FA0028F3D1754908707549087009200A
:1003E000744908700120744908700020734908702E
:1003F00011E0734871490978405C6B496F4A127883
:10040000895C884202D00120684908706B480078F6
:10041000401C6A490870694800780428E9DB634891
:100420000078002868D064480078002864D0002054
:100430005F49087060490870604908700CE05A48CC
:100440005E490978405C5E495C4A127888545B4892
:100450000078401C59490870584800780428EEDBA1
:1004600000205649087020E04F49544A1278885CB1
:10047000FFF7FCFE2848007852494E4A127888540B
:100480004C480078401C4B490870234841784D483F
:10049000484A1278815447480078401C4549087002
:1004A00046480078401C45490870444800780428B4
:1004B000DADB444A44A12E4800F014F901204349F4
:1004C000087000203D49087012E03C48007809306F
:1004D0003C49095C3E48394A1278805C814202D02E
:1004E00000203A49087035480078401C33490870AC
:1004F000324800780828E8DB62E700000008014085
:10050000003001406300002030313233343536375B
:1005100038394142434445469000002000CA9A3B86
:1005200000E1F5058096980040420F00A08601008A
:100530000D0A2074686973206973206120707269E4
:100540006E74662064656D6F200D0A000D0A2054DC
:100550006869732069732061205553415254315F9B
:100560007072696E74662064656D6F200D0A0000FC
:10057000003801400D0A20284170722032322032AA
:10058000303139202D2032323A34323A3332292078
:100590000D0A00000D0A20524335323220696E697F
:1005A00074200D0A000000009A00002002000020C4
:1005B00004000020030000200500002001000020AE
:1005C0006B000020510000200A2573000600002067
:1005D0006F000020704700BFFEE700BFFEE700BFCE
:1005E000FEE700BFFEE770477047704770470000A6
:1005F00000B585B0012144F2040000F0FFFB4FF488
:100600000070ADF8100018208DF8130003208DF84D
:10061000120004A9754800F055F94FF48060ADF858
:10062000100004208DF8130004A9704800F04AF966
:100630004FF4E13000900020ADF80400ADF8060062
:10064000ADF80800ADF80C000C20ADF80A006946C2
:10065000674800F080FC0121654800F0EAFC05B025
:1006600000BD70B504460D46E1B2614800F049FD99
:1006700000BF5F48008800F080000028F9D02046C5
:1006800070BDF0B503460D461646002729460A2ED2
:1006900003D0002008702846F0BD33B9302001F89F
:1006A000010B002008702846F6E7002B03DA2D2006
:1006B00001F8010B5B4242F210720DE093FBF2F481
:1006C00004B937B104F1300001F8010B04FB123317
:1006D00001270A2092FBF0F2002AEFDC00200870CC
:1006E0002846D9E70FB470B586B006460CA801902D
:1006F00073E00B9800785C281CD10B98401C0B9081
:1007000000786E2809D072280FD10D21304600F0F4
:10071000F8FC0B98401C0B900BE00A21304600F0CF
:10072000F0FC0B98401C0B9003E00B98401C0B90C6
:1007300000BF4BE00B980078252840D10B98401C57
:100740000B900078642818D0732833D1019810C812
:1007500001900BE02178304600F0D3FC00BF40212F
:10076000304600F025FD0028F9D0641C20780028D0
:10077000F0D10B98401C0B9020E0019820C801900C
:100780000A2202A92846FFF77CFF02AC0BE0217881
:10079000304600F0B6FC00BF4021304600F008FDB6
:1007A0000028F9D0641C20780028F0D10B98401C58
:1007B0000B9003E00B98401C0B9000BF06E00B98D9
:1007C00010F8011B0B90304600F09BFC00BF40214D
:1007D000304600F0EDFC0028F9D00B980078002896
:1007E00087D106B070BC5DF814FB00000008014022
:1007F0000038014010B50446C649601A8C422FD01B
:1008000009DCC548204480B1B0F5806F16D0B0F542
:10081000006F4AD11BE0B0F5806F2AD0B0F5006FB1
:1008200030D0B0F5406F40D135E00121042000F018
:10083000FFFA0021042000F0FBFA37E00121082034
:1008400000F0F6FA0021082000F0F2FA2EE0012173
:10085000102000F0EDFA0021102000F0E9FA25E068
:100860000121202000F0E4FA0021202000F0E0FA2D
:100870001CE00121402000F0DBFA0021402000F0C4
:10088000D7FA13E00121802000F0D2FA0021802065
:1008900000F0CEFA0AE00121080200F0C9FA0021B6
:1008A0004FF4807000F0C4FA00E000BF00BF10BD3C
:1008B00010B50121084600F0BBFA0021012000F02C
:1008C000B7FA10BD2DE9F0410246002500260020B0
:1008D00000230024002791F803C00CF00F0591F8C5
:1008E00003C00CF0100CBCF1000F03D091F802C053
:1008F0004CEA050591F800C0BCF1000F31D0146836
:1009000000202BE04FF0010C0CFA00F3B1F800C00E
:100910000CEA03069E4220D183004FF00F0C0CFA24
:1009200003F7BC4305FA03FC4CEA040491F803C046
:10093000BCF1280F06D14FF0010C0CFA00FCC2F8F4
:1009400014C00AE091F803C0BCF1480F05D14FF084
:10095000010C0CFA00FCC2F810C0401C0828D1D3CE
:100960001460B1F800C0BCF1FF0F34DD5468002002
:100970002EE000F1080C4FF0010808FA0CF3B1F872
:1009800000C00CEA03069E4221D183004FF00F0CF9
:100990000CFA03F7BC4305FA03FC4CEA040491F893
:1009A00003C0BCF1280F05D100F1080C08FA0CF8BF
:1009B000C2F8148091F803C0BCF1480F07D100F1D0
:1009C000080C4FF0010808FA0CF8C2F81080401C1F
:1009D0000828CED35460BDE8F0814FF6FF71018046
:1009E000022181700421C170704702460020936883
:1009F0000B400BB1012000E00020704701468868E1
:100A000080B2704702460020D3680B400BB1012032
:100A100000E0002070470146C86880B2704701615D
:100A20007047416170470AB1016100E04161704760
:100A3000C16070474FF480320A43826181618261F4
:100A400082698269704702460020344B18684FF66D
:100A50008073184040EA02100843304B186070471A
:100A60002F49C8617047F0B50A46002300240021D1
:100A700000252A4E7168C0F3034583B200F4401686
:100A8000B6F5401F08D121F07061244E766826F03B
:100A90007066224F7E6012E000F48016B6F5801F6B
:100AA00006D1032606FA05F4A14341F0706106E081
:100AB000460D360103FA06F6B14341F0706122B1EA
:100AC000460D360103FA06F63143144E7160F0BD4F
:100AD00030B500228B071C0F0F2303FA04F20F4BD3
:100AE00008338C1053F8243093430C4C08348D1089
:100AF00044F8253023468C1053F824308C07240FFB
:100B000000FA04F42343054C08348D1044F82530D2
:100B100030BD00000014014000F8FEBF000001409D
:100B200000002042DE48006840F00100DC49086017
:100B300008464068DB490840D949486008460068D3
:100B4000D9490840D64908600846006820F480204A
:100B500008600846406820F4FE0048600020886075
:100B60007047CF49096821F48031CD4A11601146A0
:100B7000096821F480211160B0F5803F03D0B0F501
:100B8000802F0ED106E0C649096841F48031C44A7D
:100B9000116007E0C249096841F4A021C04A116010
:100BA00000E000BF00BF704710B5014600220023DF
:100BB00000204A11012A02D1B94C236806E0022A1A
:100BC00002D1B74C236A01E0B54C636A01F01F0201
:100BD000012494401C400CB1012000E0002010BD15
:100BE00038B5002000900024002500BF3120FFF719
:100BF000DBFF05460098401C00901DB90098B0F539
:100C0000A06FF3D13120FFF7CFFF08B1012400E03E
:100C10000024204638BD01460020A14A106820F07B
:100C2000F80040EAC10010607047A04908607047B2
:100C3000024600209A4B586820F47C1042EA0103D7
:100C40001843974B586070479849086670470146AB
:100C50000020934A506820F003000843506070471A
:100C60008F48406800F00C007047014600208C4A15
:100C7000506820F0F00008435060704701460020A3
:100C8000874A506820F4E06008435060704701468E
:100C90000020834A506820F4605040EAC100506050
:100CA000704729B17E4A527A02437D4B5A7204E062
:100CB0007B4A527A82437A4B5A7270477B49D831C9
:100CC0000860704701460020754A506820F4404093
:100CD0000843506070470021714A20321170704AF9
:100CE00082F82010012802D004280AD104E0012152
:100CF0006B4A2032117005E00521694A20321170DB
:100D000000E000BF00BF7047694908607047644950
:100D1000096A0143624A11627047654944390860B3
:100D2000704730B500210022002400235C4D6D681F
:100D300005F00C0121B1042905D0082923D105E0D3
:100D40005C4D056022E05B4D05601FE0544D6D6811
:100D500005F47012022505EB9242514D6D6805F4C1
:100D600080341CB9544D554305600BE04C4D6D6803
:100D700005F400351DB1504D5543056002E04D4D61
:100D80005543056002E04B4D056000BF00BF444D78
:100D90006D6805F0F0010909484D6B5C0568DD40A0
:100DA00045603F4D6D6805F4E061090A434D6B5C99
:100DB0004568DD4085603A4D6D6805F46051C90AAB
:100DC0003E4D6B5C4568DD40C560354D6D6805F492
:100DD0004041890B3A4D6B5CC568B5FBF3F5056185
:100DE00030BD29B12E4A526902432D4B5A6104E0AD
:100DF0002B4A526982432A4B5A61704729B1284ACB
:100E000092690243264B9A6104E0254A9269824323
:100E1000234B9A61704729B1214AD2690243204B82
:100E2000DA6104E01E4AD26982431D4BDA617047E1
:100E300029B11B4AD2680243194BDA6004E0184A10
:100E4000D2688243164BDA60704729B1144A12699E
:100E50000243134B1A6104E0114A12698243104B9A
:100E60001A61704712494039086070470F49C864D9
:100E700070470B49C87170470948406A40F080705C
:100E800007494862704701460020054A92680A40B7
:100E90000AB1012000E000207047014988727047C4
:100EA000001002400000FFF8FFFFF6FE0000424283
:100EB0008004424200127A0000093D0077000020C1
:100EC0008700002010B50446D749601A8C422BD009
:100ED00006DCD648204498B1B0F5806F38D119E0CF
:100EE000B0F5806F2AD0B0F56C4F31D10121880365
:100EF000FFF79EFF00214FF48040FFF799FF28E0A5
:100F000001214804FFF7A1FF00214FF40030FFF753
:100F10009CFF1EE001218804FFF797FF00214FF49A
:100F20008020FFF792FF14E00121C804FFF78DFF36
:100F300000214FF40020FFF788FF0AE00121080597
:100F4000FFF783FF00214FF48010FFF77EFF00E0E2
:100F500000BF00BF10BD2DE9F04786B005460E4624
:100F60000024A24600BF00BF00272F462C8A4CF663
:100F7000FF700440F08804432C82AC894EF6F310D5
:100F80000440B08831890843718908430443AC8127
:100F9000AC8A4FF6FF400440B0890443AC8201A8FC
:100FA000FFF7BFFEA248874202D1DDF810A001E0A2
:100FB000DDF80CA00AEBCA0000EB0A1031688900CA
:100FC000B0FBF1F86420B8FBF0F0040120096421C3
:100FD00001FB1089322000EB0910B0FBF1F000F0AA
:100FE0000F0004432C8106B0BDE8F0874FF4165182
:100FF000016000218180C18001810C21418100219B
:101000008181704710B502460020108A4FF2FF031D
:1010100018400B884C8823438C882343CC88234377
:101020001843108210BD0021018041808180C18061
:10103000704721B1828942F40052828104E08289A2
:101040004DF6FF731A4082817047F0B503460024C5
:101050000026002500201846C1F3421401F01F06A7
:10106000012707FA06F5012C01D10C3004E0022C0F
:1010700001D1103000E014301AB107682F43076027
:1010800002E00768AF430760F0BD1AB1838A0B43E3
:10109000838202E0838A8B4383827047028A4FF601
:1010A000F0731A400282028A0A43028270478289E0
:1010B0004FF2FF731A40828182890A43828170470E
:1010C00021B1828942F00202828104E082894FF6D6
:1010D000FD731A4082817047028A4FF6DF731A400F
:1010E0000282028A0A430282704721B1028A42F4D4
:1010F0008042028204E0028A4BF6FF731A400282A9
:101100007047C1F308028280704701468888C0F3A7
:1011100008007047818941F0010181817047028B8D
:10112000D2B20283028B42EA012202837047028B11
:1011300002F47F420283028B0A430283704721B18B
:10114000828A42F02002828204E0828A4FF6DF73B4
:101150001A408282704721B1828A42F01002828254
:1011600004E0828A4FF6EF731A408282704721B101
:10117000828A42F00802828204E0828A4FF6F77384
:101180001A4082827047828A4FF6FB731A4082822D
:10119000828A0A438282704721B1828A42F0020227
:1011A000828204E0828A4FF6FD731A408282704781
:1011B0000246002013880B400BB1012000E0002004
:1011C0007047CA430280704770B502460B46002440
:1011D000002100250020C3F3421503F01F01012662
:1011E00006FA01F1012D02D19689314006E0022D67
:1011F00002D1168A314001E0968A31401C12012644
:1012000006FA04F41688344011B10CB1012000E054
:10121000002070BD10B5002200230A120124944062
:10122000A3B2DC43048010BD004C004000BCFFBFF3
:101230000038014010B50446BD48204478B1B0F5EF
:10124000806F16D0B0F5784F1DD101210803FFF74C
:10125000EFFD00214FF48050FFF7EAFD14E001217B
:101260008803FFF7F2FD00214FF48040FFF7EDFD0A
:101270000AE00121C803FFF7E8FD00214FF4004018
:10128000FFF7E3FD00E000BF00BF10BD10B5002276
:10129000028802F441520B884C8823438C882343F4
:1012A000CC8823430C8923434C8923438C892343D3
:1012B000CC8923431A430280838B4FF2FF7423406F
:1012C00083830B8A038210BD2DE9F04786B0054663
:1012D0000C464FF0000902274FF000084FF0010ABA
:1012E0000026A88B4FF240010840A88302202884E2
:1012F000B5F81C902089022801D100BF31E0A088F8
:1013000010B94FF0010A01E04FF0020A01A8FFF7FF
:1013100008FDE088B0F5007F0AD1019800EB80005D
:10132000400021890902B0FBF1F0401D86B20BE0BC
:101330004FEA4A1021894843019901EB8101490094
:10134000B1FBF0F0401D86B20A20B6FBF0F606F0C5
:101350000108A6EB0800C0F34F074FF6FF7000EA44
:101360000828022F01DBFF2F02DD02274FF00008C3
:1013700047EA0800E18808432884208840F4006098
:1013800061880843A18808436189084340EA090944
:10139000A5F81C9006B0BDE8F087002101804180CF
:1013A0008180C180018141818181C18107210182C8
:1013B00070470021018041808180C180022101812C
:1013C00000214181704721B1028842F04002028031
:1013D00004E002884FF6BF731A400280704721B1C3
:1013E000828B42F48062828304E0828B4FF6FF336B
:1013F0001A408283704730B5002400230C11012568
:10140000A540ABB21AB185881D43858002E085886E
:101410009D43858030BD1AB183880B43838002E0F1
:1014200083888B4383807047818170470146888918
:1014300070474FF6FF62914204D0028842F48072F6
:10144000028004E002884FF6FF631A400280704772
:1014500021B1828842F00402828004E082884FF643
:10146000FB731A408280704702884FF2FF731A4064
:10147000028002880A4302807047018841F480514B
:101480000180704721B1028842F40052028004E0DA
:1014900002884DF6FF731A40028070470246002012
:1014A000012901D0108B00E0908A70470146088A1C
:1014B0007047B1F5804F04D1028842F48042028027
:1014C00004E002884BF6FF731A4002807047024620
:1014D000002013890B400BB1012000E00020704771
:1014E000CA4302817047F0B5024600200024002361
:1014F000002501F00F070126BE40B4B20B110126F2
:101500009E40B3B2968806EA03051689264016B1B6
:101510000DB1012000E00020F0BD10B5002201F067
:101520000F040123A3409AB2D343038110BD0000EE
:1015300000C8FFBF0CB5002001900090474800682C
:1015400040F480304549086000BF4448006800F41A
:10155000003000900198401C0190009818B9019843
:10156000B0F5A06FF1D13D48006800F4003010B133
:101570000120009001E0002000900098012844D153
:101580003748006840F01000354908600846006898
:1015900020F0030008600846006840F00200086080
:1015A0002E4840682D494860084640684860084613
:1015B000406840F4806048600846406820F47C1031
:1015C00048600846406840F4E810486008460068F3
:1015D00040F08070086000BF2048006800F0007094
:1015E0000028F9D01D48406820F003001B494860DE
:1015F0000846406840F00200486000BF1748406855
:1016000000F00C000828F9D101E000BFFEE70CBD96
:1016100010B5FFF78FFF10BD10B51048006840F0FF
:1016200001000E490860084640680E4908400B4911
:101630004860084600680C490840084908600846A8
:10164000006820F4802008600846406820F4FE000E
:10165000486000208860FFF7DBFF10BD00100240EB
:10166000002002400000FFF8FFFFF6FE38B50446F8
:10167000002000902146FE48FFF7D6FE00BF022161
:10168000FB48FFF724FF0028F9D0F948FFF7CEFE0A
:10169000C0B200909DF8000038BD70B505460C46FC
:1016A0001021F448FFF7BDF92846FFF7DFFF204679
:1016B000FFF7DCFF1021EF48FFF7B1F970BD70B5FF
:1016C00004461021EB48FFF7ACF92046FFF7CEFFA8
:1016D0000020FFF7CBFF05461021E648FFF79FF9F2
:1016E000284670BD70B504460D467E2000EA4404CD
:1016F00029462046FFF7D1FF70BD70B504467E2015
:1017000000EA440040F080042046FFF7D8FF054679
:10171000284670BD70B505460C462846FFF7EDFF1C
:1017200020EA040631462846FFF7DCFF70BD70B59D
:1017300005460C462846FFF7E0FF40EA040631461E
:101740002846FFF7CFFF70BD2DE9FE4F06468846BD
:1017500091469A46DDF830B00220029000200190B8
:1017600000900C2E06D00E2E09D1122001901020D0
:10177000009005E0772001903020009000E000BF4D
:1017800000BF019840F080010220FFF7ABFF8021ED
:101790000420FFF7BFFF80210A20FFF7C8FF0021C8
:1017A0000120FFF79FFF002506E018F8051009202B
:1017B000FFF798FF681C85B24D45F6DB31460120E6
:1017C000FFF790FF0C2E03D180210D20FFF7AFFF14
:1017D0004FF4FA6500BF0420FFF78FFF0446681E30
:1017E00085B235B104F0010018B9009820400028F6
:1017F000F1D080210D20FFF78DFF002D36D006207F
:10180000FFF77BFF00F01B0070BB002002900198E7
:10181000204000F0010008B1012002900C2E25D1DB
:101820000A20FFF76AFF04460C20FFF766FF00F06E
:1018300007072FB1601E07EBC000ABF8000002E005
:10184000E000ABF8000004B90124102C00DD1024E6
:10185000002506E00920FFF750FF0AF80500681C84
:1018600085B2A542F6DB01E0022002900298BDE8B5
:10187000FE8F2DE9F04107468846154604210520D4
:10188000FFF748FF80210A20FFF751FF002405E001
:10189000395D0920FFF726FF601CC4B24445F7DB21
:1018A00003210120FFF71EFFFF2400BF0520FFF7E3
:1018B00024FF0646601EC4B21CB106F004000028D6
:1018C000F4D02220FFF719FF28702120FFF715FF21
:1018D0006870BDE8F0810EB550208DF8040000203E
:1018E0008DF805000DF10602022101A8FFF7C1FFE6
:1018F00002A801AB042201A900900C20FFF724FFED
:101900000EBD2DE9FC410446002700210D20FFF704
:10191000E9FE932020702020607001A82346022257
:10192000214600900C20FFF70FFF06465EB9002508
:1019300003E0605D4740681CC5B2042DF9DB605DC3
:10194000B84200D002263046BDE8FC817CB5064690
:101950000C4607210D20FFF7C5FE267001A823467F
:101960000122214600900C20FFF7EEFE05461DB92E
:10197000BDF80400102800D0022528467CBD70B5B3
:10198000044621462620FFF7E1FF05461DB9204603
:10199000FFF7B7FF0546FFF79EFF284670BD10B55D
:1019A00002460B46002107E0505C5C5CA04201D07F
:1019B000022010BD481CC1B20529F5DB0020F8E764
:1019C000F0B585B0074693208DF8040070208DF89F
:1019D0000500002405E0395D01AAA01C1154601C1B
:1019E000C4B2052CF7DB0DF10B02072101A8FFF7AC
:1019F00040FF04A801AB092201A900900C20FFF7C9
:101A0000A3FE054635B9BDF81000182802D19DF88F
:101A1000046000E00026304605B0F0BD2DE9F0433B
:101A200085B006460F46904699468DF804608DF8BD
:101A30000570002406E018F8041001AAA01C115437
:101A4000601CC4B2062CF6DB002407E019F8041071
:101A500001AA04F108001154601CC4B2042CF5DB87
:101A600004A801AB0C2201A900900E2004E00000A4
:101A70000030014000080140FFF766FE05462DB921
:101A80000820FFF73AFE00F0080000B902252846BA
:101A900005B0BDE8F0837CB505460C4630202070CB
:101AA0006570A21C02212046FFF7E3FE01A8234631
:101AB0000422214600900C20FFF746FE06461EB980
:101AC000BDF80400902800D0022630467CBDF0B559
:101AD00087B006460F46A0208DF804008DF80560FB
:101AE0000DF10602022101A8FFF7C3FE06A801AB13
:101AF000042201A900900C20FFF726FE05464DB9EF
:101B0000BDF81800042805D19DF8040000F00F006E
:101B10000A2800D0022515BB002404E0385D01A985
:101B20000855601CC4B2102CF8DB05AA102101A8CE
:101B3000FFF79FFE06A801AB122201A900900C201E
:101B4000FFF702FE05464DB9BDF81800042805D17F
:101B50009DF8040000F00F000A2800D00225284656
:101B600007B0F0BD10B51420FFF7C7FD044604F020
:101B7000030018B903211420FFF7D9FD10BD10B5DB
:101B80000F210120FFF7AEFD10BD10B5FFF7F7FFE5
:101B90008D212A20FFF7A6FD3E212B20FFF7A2FD75
:101BA0001E212D20FFF79EFD00212C20FFF79AFD1E
:101BB00070212620FFF796FD40211520FFF792FDAA
:101BC0003D211120FFF78EFDFFF7CCFF10BD10B5B2
:101BD00003211420FFF79EFD10BD0000064C074DA9
:101BE00006E0E06840F0010394E8070098471034ED
:101BF000AC42F6D3FEF7A0FA501C0008701C000897
:101C0000014A024900F013B8630600088C00002066
:101C100002E008C8121F08C1002AFAD170477047B5
:101C2000002001E001C1121F002AFBD170472DE9FD
:101C3000F04116460F460446002503E03946B047FA
:101C4000641C6D1C20780028F8D12846BDE8F0817E
:101C5000701C00080000002090000000101C00080C
:101C6000001D00089000002020020000201C000839
:101C7000000000000000000053544D333246313064
:101C800033204D69666172652052433532322052ED
:101C90004649442043617264207265616465722024
:101CA00031332E3536204D487A20666F72204B45F1
:101CB000494C2048414C0D436172642049443A200C
:101CC0000D436172642049443A2030303030303066
:101CD00030300D000000000000000000000000395E
:101CE0004335354131423500000000010203040153
:101CF00002030406070809020406080000000000A9
:0400000508000147A7
:00000001FF
