:020000040800F2
:1000000000040020DF01000845060008090600087A
:1000100041060008F7020008DB0B000800000000A2
:100020000000000000000000000000004501000882
:10003000FB0200080000000089010008D508000844
:10004000FF010008FF010008FF010008FF01000890
:10005000FF010008FF010008FF010008FF01000880
:10006000FF010008FF010008FF010008FF01000870
:10007000FF010008FF010008FF010008FF01000860
:10008000FF010008FF010008FF010008FF01000850
:10009000FF010008FF010008FF010008110300082C
:1000A000FF010008FF010008FF010008FF01000830
:1000B000FF010008FF010008FF010008FF01000820
:1000C000FF010008FF010008FF010008FF01000810
:1000D000FF010008E1090008FF010008FF01000816
:1000E000FF010008FF010008FF010008FF010008F0
:1000F000FF010008FF010008FF010008FF010008E0
:10010000FF010008FF010008FF010008FF010008CF
:10011000FF010008FF010008FF010008FF010008BF
:10012000FF010008FF010008FF010008FF010008AF
:10013000DFF80CD000F0AEF8004800479D11000831
:10014000504C0020224B19680868B0E8F00F80F38B
:100150000988BFF36F8F4FF0000080F311884EF0D5
:100160000D0E70470000000006480068006880F32C
:10017000088862B661B6BFF34F8FBFF36F8F00DFA1
:1001800000BF00BF08ED00E0EFF30980BFF36F8F01
:100190000F4B1A6820E9F00F106008B54FF0BF0050
:1001A00080F31188BFF34F8FBFF36F8F01F0ECFE28
:1001B0004FF0000080F31188BDE808401968086816
:1001C000B0E8F00F80F30988BFF36F8F704700BF6E
:1001D00020000020EFF305807047000070470848BA
:1001E0008047084981F3088807480047FEE7FEE793
:1001F000FEE7FEE7FEE7FEE7FEE7FEE7FEE7FEE7D7
:10020000DD010008504C00203101000840EA0103E4
:100210009B0703D009E008C9121F08C0042AFAD2BC
:1002200003E011F8013B00F8013B521EF9D2704780
:100230002DE9F05F0546002092469B46884606461B
:10024000814640241BE0284641464746224600F0AE
:1002500042F853465A46C01A914110D311461846E7
:10026000224600F029F82D1A67EB01084F46224676
:100270000120002100F020F817EB00094E41201E5C
:10028000A4F10104DFDC484631462A464346BDE876
:10029000F09F0000064C074D06E0E06840F00103C7
:1002A00094E8070098471034AC42F6D3FFF744FFB8
:1002B000F427000814280008202A04DB203A00FA5A
:1002C00002F1002070479140C2F1200320FA03F3AD
:1002D000194390407047202A04DB203A21FA02F0AB
:1002E0000021704721FA02F3D040C2F12002914070
:1002F00008431946704700BFFEE7704701B502E0AA
:100300000098401E009000980028F9D108BD000018
:1003100038B5402000F050F868B9802000F04CF863
:1003200048B94FF4807000F047F820B94FF40070DE
:1003300000F042F838B314A000F052FC002000F0A6
:1003400085FE1948006802F041FA60B902F08AF8A7
:100350000446002003462246062100901248006809
:1003600002F0FEF90BE002F07DF80446002003469F
:100370002246072100900C48006802F0F1F94FF482
:10038000707000F013F838BD5B4B65797363616E74
:100390005D2045585449395F355F49525148616E77
:1003A000646C65722E0D0A008C0000200149086003
:1003B0007047000014040140014600200022074B52
:1003C0001B6803EA0102054B14331B680B4013B191
:1003D0000AB1012000E00020704700000004014045
:1003E0008179002946D02A49096802689143284A40
:1003F0001160111D096802689143254A121D1160A0
:100400000179244A1144D1F8001402681143027999
:10041000204B1A44C2F800141D49083109680268CB
:1004200091431B4A08321160111D0968026891430B
:10043000174A0C321160417910290ED1111F096839
:1004400002681143124A08321160111D09680268DE
:1004500011430F4A0C32116018E041790D4A1144E2
:10046000D1F800140268114342790A4B1A44C2F8C9
:1004700000140BE00179074A1144D1F80014026816
:1004800091430279034B1A44C2F8001470470000EC
:10049000000401400000014030B500228B071C0F12
:1004A0000F2303FA04F20B4B8C1053F824309343C0
:1004B000084C8D1044F8253023468C1053F8243016
:1004C0008C07240F00FA04F42343024C8D1044F8E7
:1004D000253030BD080001402DE9F04102460025DD
:1004E0000026002000230024002791F803C00CF010
:1004F0000F0591F803C00CF0100CBCF1000F03D0F5
:1005000091F802C04CEA050591F800C0BCF1000F5B
:1005100031D0146800202BE04FF0010C0CFA00F3EE
:10052000B1F800C00CEA03069E4220D183004FF0D0
:100530000F0C0CFA03F7BC4305FA03FC4CEA040465
:1005400091F803C0BCF1280F06D14FF0010C0CFA52
:1005500000FCC2F814C00AE091F803C0BCF1480FD7
:1005600005D14FF0010C0CFA00FCC2F810C0401C81
:100570000828D1D31460B1F800C0BCF1FF0F34DDFE
:10058000546800202EE000F1080C4FF0010808FA32
:100590000CF3B1F800C00CEA03069E4221D183009F
:1005A0004FF00F0C0CFA03F7BC4305FA03FC4CEABE
:1005B000040491F803C0BCF1280F05D100F1080C28
:1005C00008FA0CF8C2F8148091F803C0BCF1480F87
:1005D00007D100F1080C4FF0010808FA0CF8C2F836
:1005E0001080401C0828CED35460BDE8F08102463C
:1005F000002093680B400BB1012000E00020704701
:10060000416170470161704700BFFEE708B50121F5
:10061000082000F06FF83120ADF8000010208DF8B0
:10062000030003208DF8020069460448FFF754FFD9
:1006300031210248FFF7E4FF08BD0000000C014033
:1006400000BFFEE7704708B54FF4407000F048F86F
:1006500025208DF800000A208DF8010000208DF87B
:10066000020001208DF80300684600F001F808BD83
:1006700070B5002100230F22C47804B3154C246800
:1006800004F4E064C4F5E064210AC1F10403CA4043
:10069000447804FA03F184781440214309010E4C94
:1006A0000678A155047804F01F050124AC400578B4
:1006B0006D11AD0005F1E025C5F8004109E00478B1
:1006C00004F01F050124AC40044D0678761145F86E
:1006D000264070BD0CED00E000E400E080E100E0A9
:1006E00002490143024A1160704700000000FA0508
:1006F0000CED00E029B1064A92690243044B9A616D
:1007000004E0034A92698243014B9A6170470000FA
:100710000010024030B500210022002400232D4D9E
:100720006D6805F00C0121B1042905D0082923D1F9
:1007300005E0294D056022E0274D05601FE0254DAD
:100740006D6805F47012022505EB9242214D6D682B
:1007500005F480341CB9214D554305600BE01D4D57
:100760006D6805F400351DB11C4D5543056002E070
:10077000194D5543056002E0174D056000BF00BFED
:10078000144D6D6805F0F0010909154D6B5C0568A5
:10079000DD4045600F4D6D6805F4E061090A104DBC
:1007A0006B5C4568DD4085600A4D6D6805F46051FD
:1007B000C90A0B4D6B5C4568DD40C560054D6D6831
:1007C00005F44041890B074D6B5CC568B5FBF3F53B
:1007D000056130BD0010024000127A0000093D00A2
:1007E000080000201800002010B500F001F810BD2E
:1007F0000CB50020019000903448006840F480302F
:100800003249086000BF3148006800F400300090B1
:100810000198401C0190009818B90198B0F5A06F9C
:10082000F1D12A48006800F4003010B10120009096
:1008300001E0002000900098012844D1244800687D
:1008400040F01000224908600846006820F00300CC
:1008500008600846006840F0020008601B484068D5
:100860001A4948600846406848600846406840F4B5
:10087000806048600846406820F47C104860084664
:10088000406840F4E81048600846006840F0807016
:10089000086000BF0D48006800F000700028F9D023
:1008A0000A48406820F0030008494860084640684C
:1008B00040F00200486000BF0448406800F00C00AF
:1008C0000828F9D101E000BFFEE70CBD001002408E
:1008D0000020024010B500BFBF2080F31188BFF395
:1008E0004F8FBFF36F8F00BF01F0C2FD18B14FF003
:1008F00080500449086000BF002080F3118800BFC9
:1009000010BD000004ED00E010B51048006840F094
:1009100001000E490860084640680D4908400B492F
:100920004860084600680B490840084908600846C6
:10093000006820F4802008600846406820F4FE002B
:10094000486000208860FFF74FFF10BD0010024094
:100950000000FFF8FFFFF6FE00B585B0012144F26C
:100960000400FFF7C7FE4FF40070ADF81000182028
:100970008DF8130003208DF8120004A91648FFF724
:10098000ABFD4FF48060ADF8100004208DF813002B
:1009900004A91148FFF7A0FD4FF4E13000900020BA
:1009A000ADF80400ADF80600ADF80800ADF80C0095
:1009B0000C20ADF80A006946084800F0B7F801229B
:1009C00040F22551054800F091F80121034800F05C
:1009D0005BF805B000BD0000000801400038014090
:1009E00010B540F22551204800F05AF8002839D0BF
:1009F0001D4800F0E9F8C4B21C48008800F400402B
:100A000058BB1A48008800F4804060B10A2C03D01B
:100A100000201649088020E01448008840F4004077
:100A20001249088019E00D2C06D11048008840F4C6
:100A300080400E49088010E00C480088C0F30D008B
:100A40000B490C5409480088401C08490880084696
:100A50000088C72801DD0020088040F225510248A7
:100A600000F008F810BD0000003801401C00002014
:100A70009400002010B5002200230A1201249440A3
:100A8000A3B2DC43048010BD21B1828942F400523C
:100A9000828104E082894DF6FF731A40828170479B
:100AA00070B502460B460024002100250020C3F348
:100AB000421503F01F01012606FA01F1012D02D1B2
:100AC0009689314006E0022D02D1168A314001E0BC
:100AD000968A31401C12012606FA04F41688344026
:100AE00011B10CB1012000E0002070BDF0B503464B
:100AF00000240026002500201846C1F3421401F00E
:100B00001F06012707FA06F5012C01D10C3004E07D
:100B1000022C01D1103000E014301AB107682F43C5
:100B2000076002E00768AF430760F0BD2DE9F047BA
:100B300086B005460E460024A24600BF00BF00272F
:100B40002F462C8A4CF6FF700440F08804432C8218
:100B5000AC894EF6F3100440B0883189084371899E
:100B600008430443AC81AC8A4FF6FF400440B0898F
:100B70000443AC8201A8FFF7CDFD1248874202D1A1
:100B8000DDF810A001E0DDF80CA00AEBCA0000EBD4
:100B90000A1031688900B0FBF1F86420B8FBF0F06E
:100BA00004012009642101FB1089322000EB0910A7
:100BB000B0FBF1F000F00F0004432C8106B0BDE85B
:100BC000F08700000038014001468888C0F3080023
:100BD0007047C1F308028280704700BFFEE7000043
:100BE0000FB4054B10B503A9044A029800F018F899
:100BF00010BC5DF814FB0000E10E0008900000201E
:100C000002E008C8121F08C1002AFAD170477047D5
:100C1000002001E001C1121F002AFBD17047000033
:100C20002DE9FF4F8DB09B460F460446002606E097
:100C300025280BD05A460F999047641C761C2078C3
:100C40000028F5D111B03046BDE8F08F0025A84648
:100C50000122984900E0054314F8013F203B02FAC5
:100C600003F00842F7D120782E2817D114F8010F8D
:100C700045F004052A280ED06FF02F022078A0F14D
:100C8000300109290AD808EB880102EB410100EB89
:100C90000108641CF2E757F8048B641C20786C2868
:100CA0000DD004DC4C2812D06A2811D104E074283D
:100CB0000DD07A280CD10AE045F4001507E06178E0
:100CC00045F48015814202D1641C05F58015641C31
:100CD0002278692A45D008DC002AB3D0582A69D086
:100CE000632A10D0642A08D13BE0702A67D0732AA7
:100CF00013D0752A5CD0782A5CD010465A460F99DA
:100D00009047761CD3E017F8040B8DF80000002004
:100D10008DF80100E946012003E057F8049B4FF0ED
:100D2000FF3069074FF0000501D40AE06D1C45450E
:100D30000DDA8542FADB19F805100029F6D106E034
:100D40006D1C8542FCDB19F805100029F8D12E44F2
:100D500004E019F8010B5A460F9990476D1EF8D21E
:100D6000A5E00A200021CDE90801C5F302500228C0
:100D70000DD001CFC117031E71F100030DDA4FF042
:100D8000000CD0EB0C006CEB01012D2308E0FF1DE3
:100D900027F00707F7E80201EDE72B0504D52B2321
:100DA0008DF8283001233BE0EB0739D02023F7E70B
:100DB0000A2000E010200021CDE9080107E0102002
:100DC000002145F00405CDE908014FF00808C5F3FE
:100DD000025002280FD001CF00214FF0000A2B074C
:100DE0001FD5702A0DD0DDE908C38CF0100C5CEA29
:100DF000030C0CD015E0FF1D27F00707F7E80201F0
:100E0000EBE740228DF828204FF0010A0BE050EA72
:100E1000010306D030238DF828308DF829200223D5
:100E20009A46582A04D024A20DF120090B9209E019
:100E300026A2F9E7DDE90823FFF7FAF90B9B9B5C93
:100E400009F8013D50EA0102F4D1ADEB0900203070
:100E50000890680701D44FF001080899884502DD21
:100E6000A8EB010000E000208046002506E00AA86B
:100E70005A46405D0F9990476D1C761C5545F6DB30
:100E800004E030205A460F999047761CB8F10001D3
:100E9000A8F10108F5DC05E019F8010B5A460F9995
:100EA0009047761C0899481E08900029F4DC641CC1
:100EB000C5E60000092801003031323334353637B9
:100EC0003839616263646566000000003031323396
:100ED0003435363738394142434445460000000036
:100EE00070B504460D46E1B20548FFF772FE00BF3B
:100EF0000348008800F080000028F9D0204670BD2B
:100F00000038014038B500200090002422E08DF820
:100F100001404FF470411548FFF774FB4FF48050C7
:100F2000A04081B21148FFF76BFB00250EE08DF861
:100F300000504020A84081B20D48FFF758FB18B977
:100F4000BDF80010084638BD681CC5B2042DEEDBA4
:100F5000601CC4B2042CDADBFF208DF801008DF890
:100F60000000BDF800100846EDE70000000C01404D
:100F70000010014010B54FF470411148FFF740FBDD
:100F800040211048FFF733FB80B180210D48FFF767
:100F90002EFB58B14FF480710A48FFF728FB28B1A7
:100FA0004FF400710748FFF722FB20B906A0FFF7B6
:100FB00017FE012010BD0DA0FFF712FE0020F9E77B
:100FC000000C0140001001405B4B65797363616E5A
:100FD0005D206B6579206973207374696C6C207077
:100FE0007265737365642E0D0A0000005B4B6579B2
:100FF0007363616E5D206B657920697320616C722B
:10100000656164792072656C65617365642E0D0A93
:101010000000000008B501210820FFF76BFB4FF42A
:101020007040ADF8000010208DF8030003208DF80B
:10103000020069460448FFF74FFA4FF47041024836
:10104000FFF7DEFA08BD0000000C01401CB50446A5
:1010500006210220FFF720FA07210220FFF71CFAE1
:1010600008210220FFF718FA09210220FFF714FADD
:101070004FF47070009000208DF804000C208DF863
:10108000050001208DF80600012C02D18DF8060024
:1010900006E000208DF806004FF47070FFF786F927
:1010A0006846FFF79DF91CBD08B50C4801230022D6
:1010B000052100900AA001F01DFB0D4908600846BB
:1010C000006818B90BA0FFF78BFD02E013A0FFF733
:1010D00087FD00F039F8FFF79DFF08BD6D1C000883
:1010E000784B65797363616E54696D6572000000B9
:1010F0008C0000205B4B65797363616E5D206B65CE
:10110000797363616E207469656D722063726561C5
:101110007465206661696C65640000005B4B6579ED
:101120007363616E5D206B65797363616E207469B2
:10113000656D7220637265617465207375636365A4
:1011400073732E0D0A0000001CB501211120FFF75A
:10115000D1FA4FF47070ADF8040048208DF8070004
:1011600001A90D48FFF7B8F90120FFF76FFF4FF411
:101170004070FFF7B5FA17208DF8000002208DF8B7
:10118000010000208DF8020001208DF80300684660
:10119000FFF76EFA1CBD0000001001401CB5FFF700
:1011A000B3FBFFF733FAFFF7D7FBFFF74CFA0EA0BC
:1011B000FFF716FDFFF778FF134803210023802275
:1011C000CDE9001011A1144801F006F913480221DD
:1011D00000238022CDE9001011A1144801F0FCF891
:1011E00000F092FE00201CBD0D0A205B456E74725B
:1011F000616E636520416363657373205379737413
:10120000656D5D200D0A0000000000207573657299
:101210005F7461736B310000BD1B00080400002087
:10122000757365725F7461736B320000011C000896
:101230002DE9F04105460E461C4807681C48006829
:10124000001D00F0FFFC50B91948006890F82C1000
:101250000120884017490968814316480160681CCD
:1012600038B936B112480168091D134800F078FDFD
:101270001AE07C190E4800684460BC4207D20C4852
:101280000168091D0D48006800F050FD0CE0084899
:101290000168091D0A48006800F048FD0948006817
:1012A000844201D207480460BDE8F0813400002088
:1012B000200000203800002010020020280000201C
:1012C000240000205000002010B5044600F054FD1A
:1012D00023480068401C224908602248006840B941
:1012E000204804600846006801280DD100F0B4F9D8
:1012F0000AE01D48006838B91A480068C06AE16A07
:10130000884201D81748046018480068401C1749F3
:10131000086094F82C10012088401549096808439A
:1013200013490860E16A01EB8101124A02EB810076
:10133000211D00F015FD00F031FD0B48006868B17B
:1013400008480068C06AE16A884207D24FF08050BE
:1013500009490860BFF34F8FBFF36F8F10BD0000C6
:1013600030000020200000203C0000204C00002025
:10137000380000205C01002004ED00E010B500F012
:10138000FBFC0C48006890B90B4800F0BFFC0B4810
:1013900000F0BCFC08480A49086008480949086090
:1013A00000220C21142000F039FE0249086000F0F0
:1013B000F5FC10BD6400002024020020380200204B
:1013C0005C0000206000002010B516E000F0D4FCA6
:1013D0000C48C068C468201D00F034FC0A4800684E
:1013E000401E0949086009480068401E0749086016
:1013F00000F0D4FC204600F055F8044800680028AE
:10140000E4D110BDFC010020300000202C000020A1
:1014100070B504460D46206C70B1216CE068014443
:10142000E160D4E90210884201D32168E1602846D6
:10143000226CE168FEF7EAFE70BD2DE9F04104463A
:101440000F4615464FF00008A66B206C28B37DB9F7
:101450003946226C6068FEF7D9FE216C606808444A
:101460006060D4E90101884217D32068606014E00D
:101470003946226CE068FEF7C9FE216CE068411A2B
:10148000E1602168E068884203D2216CA068411ABB
:10149000E160022D01D106B1761E701CA0634046AA
:1014A000BDE8F08110B50446206B00F087FC2046B3
:1014B00000F084FC10BD00000146084A1268126862
:1014C0000AB9012200E000220A600A6822B9034A30
:1014D0001268D268106800E0002070475C000020AD
:1014E00030B54FF49043174800F007042CB1C01DED
:1014F00020F00700134C041B1B1B0246124C2260F9
:101500000024114D6C60D018083820F007000F4CF3
:10151000206000240D4D2D686C600C4D2D682C60F2
:101520001146441A4C60094C24680C60084D4C6804
:101530002C60084D4C682C604FF00044064D2C6028
:1015400030BD00004C020020700000207800002018
:10155000800000207C0000208400002000BFFFF7F6
:1015600033FF064800680128F9D94FF0805004493C
:101570000860BFF34F8FBFF36F8FF0E75C0100206F
:1015800004ED00E02DE9F04106460D461746984669
:10159000069C0DB9246000E02760E6632564012104
:1015A000204600F059FDBDE8F0812DE9FF5F80463F
:1015B0000E469146DDE90E7A109CA9F10100216BDF
:1015C00001EB800B2BF0070B002507E0715D04F1A8
:1015D00034004155705D00B902E06D1C102DF5D34B
:1015E00000BF002143200155052F00D30427E762E7
:1015F000201D00F098FB04F1180000F094FB24611A
:10160000C7F10500A06164620020606484F84800AE
:1016100041465846039A00F0BFFA2060BAF1000F25
:1016200001D0CAF80040BDE8FF9F2DE9F04705460C
:101630000E4617469846DDE908945CB1FFF79EFE1A
:101640002560A661E761C4F82080C4F82490201DBD
:1016500000F069FBBDE8F08710B5002407E004EB5B
:1016600084010F4A02EB810000F050FB641C052C42
:10167000F5D30C4800F04AFB0B4800F047FB0B4841
:1016800000F044FB0A4800F041FB0A4800F03EFB32
:1016900004480949086004480849086010BD000072
:1016A0005C010020C0010020D4010020E8010020DE
:1016B000FC0100201002002024000020280000204F
:1016C00010B50146164800E0006803688B42FBD362
:1016D0000246436813448B4204D143684C68234458
:1016E000436001460A464B6813440468A34211D183
:1016F0000C4C03682468A34208D04B6804686468F3
:1017000023444B6003681B680B6005E0054B1B68B6
:101710000B6001E003680B60884200D0016010BDDF
:1017200070000020780000202DE9F04104460D46AD
:1017300016461F464FF0000865602461B5420CD87C
:10174000F01BA169884202D34FF0010811E0211D6E
:101750000948006800F0EAFA0BE0BE4204D2BD423C
:1017600002D34FF0010804E0211D0448006800F096
:10177000DDFA4046BDE8F081600000205C000020FA
:1017800070B5054600F0F8FAA86B08B9012400E02E
:10179000002400F003FB204670BD70B5054600F044
:1017A000EBFAA86BE96B884201D1012400E0002428
:1017B00000F0F4FA204670BDF8B505460E46104814
:1017C0000068C068C468201D00F03CFAE069012888
:1017D00011D1A06941192B4632462046FFF7A4FFDC
:1017E00048B1002003462A4601460090204600F0FA
:1017F000B7FF074600BF2046616A8847F8BD000072
:101800005C00002070B586B04DE0039800284ADBEC
:10181000059C606908B9012000E0002010B9201D76
:1018200000F010FA02A800F09FF8054603980A2875
:1018300037D2DFE800F009050725273206082628F9
:1018400000BF00BF00BF00BF0498A2698118034613
:101850002A462046FFF768FF88B12046616A88471C
:10186000E06901280BD1002000900498A16942187A
:1018700000231946204600F073FF064600BF11E022
:1018800000BF0FE000BF0498A061A06941192B467A
:101890002A462046FFF748FF04E0204600F08EFA73
:1018A00000E000BF00BF002203A90448006800F068
:1018B000E3FC0028A9D106B070BD00006400002040
:1018C000F8B505460C4600F057FB684600F04CF8AA
:1018D0000646009820BB44B9B54206D800F096FEF3
:1018E00031462846FFF768FF1CE03CB10E4800680F
:1018F000006808B9012000E000200446A91B224628
:101900000A48006800F08AFA00F080FE50B94FF0F3
:10191000805007490860BFF34F8FBFF36F8F01E01E
:1019200000F074FEF8BD000060000020640000209C
:1019300004ED00E00A490968096809B9012100E0DD
:10194000002121B14FF0FF31064A116006E0044941
:101950000968C968C868034A416811607047000097
:10196000240000205000002070B5044600F074FDF3
:10197000054607480068854204D200F00BF80120B4
:10198000206001E00020206001480560284670BD0D
:101990006C0000202DE9F84326E01D480068C0686F
:1019A00005681B480068C068C468201D00F04AF93B
:1019B0002046616A8847E069012815D1A069461967
:1019C000AE4207D966602461211D1148006800F00D
:1019D000ADF909E0002003462A4601460090204662
:1019E00000F0BEFE804600BF09480068006808B9E4
:1019F000012000E000200028CFD0054807680548F6
:101A000000680349086003480760BDE8F8830000E8
:101A10005C0000206000002000BFBF2080F3118820
:101A2000BFF34F8FBFF36F8F00BF00BFFEE708B556
:101A300000BF6846FFF740FD044620460099FFF7C7
:101A40003FFFFFF7DFFEF4E770B5044600F094F9BE
:101A500094F9455010E0606A08B9012000E00020C8
:101A600038B904F1240000F091FD18B100F022FA19
:101A700000E003E0681E45B2002DECDC00BFFF2053
:101A800084F8450000F08AF900F076F994F94450A2
:101A900010E0206908B9012000E0002048B904F1F5
:101AA000100000F073FD08B100F004FA681E45B2A2
:101AB00000E001E0002DECDC00BFFF2084F84400D2
:101AC00000F06CF970BD00002DE9F04105464FF0C3
:101AD000000800F051FA2B48006808B9FFF700FD34
:101AE000294800682840002847D145B1083505F04D
:101AF000070020B105F00700C0F108000544002DE3
:101B00003BD022480068854237D8214E30460468D1
:101B100001E0264624686068A84202D220680028B6
:101B2000F7D118480068844227D0306800F10808CF
:101B3000206830606068401B102807D9671960680A
:101B4000401B786065603846FFF7BAFD0F49606852
:101B50000968081A0D490860084600680D490968B7
:101B6000884203D2094800680A490860064960684B
:101B70000968084360600020206000F047FD40468F
:101B8000BDE8F08178000020840000207C00002067
:101B90007000002080000020001F4FF08073036061
:101BA000001F21F001030360001F034B0360143882
:101BB0000260203870470000191A000811E0012166
:101BC0000848FEF71DFD0848FEF798FB012105486F
:101BD000FEF718FD4FF4C87000F046F903A0FEF7B9
:101BE000FFFFECE7000C0140EFFF6F007461736BC7
:101BF00031206973207374617274200D0A00000033
:101C000010E001210848FEF7FBFC0848FEF776FBD0
:101C100001210548FEF7F6FC0448FEF76FFB04A01F
:101C2000FEF7DEFFEDE70000000C0140F0FF0600CC
:101C30007461736B32206973207374617274200D48
:101C40000A00000001460A69D1E901309860D1E933
:101C5000010358605068884201D1886850600020B4
:101C600008611068401E10601068704738B504465F
:101C70000DA0FEF7B5FFFFF77DF918B90120FFF7BA
:101C8000E5F938BD00200090FFF73CF900909DF881
:101C900001209DF800100EA0FEF7A2FF0120FFF723
:101CA000D5F900BFEDE700005B4B65797363616EAA
:101CB0005D20764B65797363616E5F646562756EF6
:101CC00063655F63616C6C6261636B2E0D0A00007B
:101CD0005B4B65797363616E5D206B65795F7661DF
:101CE0006C75652C20726F775F696E646578203D36
:101CF000202523782C20636F6C5F696E64657820E3
:101D00003D202523782E0D0A0000000000F1080177
:101D100041604FF0FF31816000F10801C160016155
:101D200000210160704700210161704710B5024633
:101D30000B685C1C0CB9106907E002F1080000E0B8
:101D40004068446824689C42FAD944684C604C68F6
:101D5000A160886041600A611468641C146010BD51
:101D600042684A6093688B6093685960916008612B
:101D700003685B1C0360704700BFBF2080F31188BD
:101D8000BFF34F8FBFF36F8F00BF03480068401C45
:101D9000014908607047000088000020064800687C
:101DA000401E054908600846006820B9002080F3FD
:101DB000118800BF00BF70478800002070B506463C
:101DC0003546D6B1083D2C460C4960680968084084
:101DD00098B1206888B909496068096888436060DB
:101DE00000F0CAF8064960680968084404490860B8
:101DF0002046FFF765FC00F009FC70BD8400002060
:101E00007C00002000204FF0E0210861886102483A
:101E100048610720086170473F1901002DE9F04132
:101E200005460E4617462C46FFF7A6FF94F94400D8
:101E3000401C10B9002084F8440094F94500401C6F
:101E400010B9002084F84500FFF7A8FFA06B28B95F
:101E50003A46314604F1240000F042F82046FFF7EC
:101E6000F3FDBDE8F081000070B50446002544B1E3
:101E700000F082F800212046FFF7DAF900F0C6FBF7
:101E800005463DB94FF0805003490860BFF34F8FBE
:101E9000BFF36F8F70BD000004ED00E003490968D7
:101EA0000160034909684160704700004800002054
:101EB00034000020012001490860704744000020E0
:101EC00070B505460C460548016818312846FFF7ED
:101ED0002DFF01212046FFF7ABF970BD2000002047
:101EE00070B506460D46144606480168183130465E
:101EF000FFF736FF0CB14FF0FF3521462846FFF7BC
:101F000097F970BD200000201CB5144800210B4635
:101F10008022CDE9001012A1134800F05DFA0446BA
:101F2000012C02D100F0FEFB0446012C14D100BFAD
:101F3000BF2080F31188BFF34F8FBFF36F8F00BFB7
:101F40004FF0FF300949086001200949086000206E
:101F50000849086000F048F81CBD0000540000204B
:101F600049444C45000000005D1500085000002069
:101F70003C0000203400002002480068401C014959
:101F800008607047580000201248006818B101200E
:101F9000114908601DE000200F4908600F480068E3
:101FA000B0FA80F0C0F11F0101EB81020C4B03EB92
:101FB000820042685268426000F10802436893421E
:101FC00002D14268526842604268D268054B1A608A
:101FD00000BF704758000020440000203800002057
:101FE0005C0100202000002010B50A48006840F481
:101FF0007F00084908600846006840F07F4008609C
:10200000FFF700FF002004490860FEF7ADF800204C
:1020100010BD000020ED00E0880000202DE9F8430D
:1020200007460D4690460DB9002601E007FB05F670
:1020300006F14800FFF748FD04464CB1A14609F1FE
:10204000480943464A46294638460094FFF79AFA1B
:102050002046BDE8F883000070B505460E462C46C4
:10206000FFF78AFED4E90F12206801FB0200A0608E
:102070000020A06320686060E06B401E226C216835
:1020800000FB0211E160FF2084F8440084F8450061
:102090009EB9206908B9012000E00020A8B904F128
:1020A000100000F073FA80B14FF0805009490860C9
:1020B000BFF34F8FBFF36F8F07E004F11000FFF7FE
:1020C00025FE04F12400FFF721FEFFF767FE012043
:1020D00070BD000004ED00E02DE9FF4383B007462A
:1020E00088461D464FF000093C4600BFFFF744FEFE
:1020F000A06BE16B884201D3022D28D12A464146CC
:102100002046FFF79AF90646606A08B9012000E008
:10211000002068B904F1240000F038FA88B14FF0CB
:10212000805032490860BFF34F8FBFF36F8F08E0D4
:102130003EB14FF080502D490860BFF34F8FBFF381
:102140006F8FFFF72BFE012007B0BDE8F0830598E5
:1021500018B9FFF723FE0020F6E7B9F1000F04D10C
:1021600001A8FFF79BFE4FF00109FFF717FEFFF7ED
:1021700003FFFFF701FE94F94400401C10B9002052
:1021800084F8440094F94500401C10B9002084F8FC
:102190004500FFF703FE05A901A800F0EFF8F0B92C
:1021A0002046FFF7FAFAA0B104F110000599FFF7F5
:1021B00087FE2046FFF748FC00F028FA002895D15A
:1021C0004FF0805009490860BFF34F8FBFF36F8F06
:1021D0008CE72046FFF738FC00F018FA86E7204627
:1021E000FFF732FC00F012FA0020ADE704ED00E04A
:1021F0002DE9F05F05468A4616461F462C4600BF6D
:10220000BF21EFF3118081F31188BFF34F8FBFF32C
:102210006F8F00BF8146A06BE16B884201D3022F14
:1022200020D194F945B03A4651462046FFF705F9CA
:102230000BF1010070B9606A08B9012000E00020CC
:1022400068B904F1240000F0A1F940B13EB10120C9
:10225000306004E00BF1010040B284F845004FF01B
:10226000010801E04FF0000800BF89F3118800BFAA
:102270004046BDE8F09F00002DE9F74183B00546D8
:102280000F464FF000082C4600BFFFF775FDA66B08
:10229000F6B139462046FFF7BBF8701EA0632069EF
:1022A00008B9012000E0002060B904F1100000F03E
:1022B0006DF938B14FF080502F490860BFF34F8F50
:1022C000BFF36F8FFFF76AFD012006B0BDE8F08114
:1022D000059818B9FFF762FD0020F6E7B8F1000F86
:1022E00004D101A8FFF7DAFD4FF00108FFF756FD12
:1022F000FFF742FEFFF740FD94F94400401C10B97F
:10230000002084F8440094F94500401C10B90020D6
:1023100084F84500FFF742FD05A901A800F02EF85A
:10232000F0B92046FFF72CFAA0B104F1240005997A
:10233000FFF7C6FD2046FFF787FB00F067F900288E
:10234000A3D14FF080500C490860BFF34F8FBFF30B
:102350006F8F9AE72046FFF777FB00F057F994E775
:102360002046FFF771FB00F051F92046FFF708FA0D
:1023700000288AD00020A8E704ED00E070B50646EA
:102380000C46FFF7F9FC124802687068131A2068BF
:10239000401C08B9002517E00E49306809688842DA
:1023A00004D07068904201D801250DE02068984261
:1023B00007D92068C01A20603046FFF76FFD00255E
:1023C00002E0002020600125FFF7E8FC284670BDF0
:1023D00034000020480000202DE9FF4F85B08046E2
:1023E00089461746DDE912ABB800FFF76DFB0646DC
:1023F00056B14C20FFF768FB04460CB1266304E09D
:102400003046FFF7DBFC00E000247CB10020CDE982
:1024100000ABCDE902403A4649464046089BFFF7EB
:10242000C4F82046FEF750FF012501E04FF0FF35CC
:10243000284609B0BDE8F08F0549096809B90120AF
:1024400005E00449096809B9022000E0002070474E
:102450003C00002058000020014908687047000037
:10246000340000200021014A106870473400002029
:102470002DE9F04100273A480068002863D1394827
:102480000068451C374805608DB93748D0F8008092
:1024900036480068344908603448C0F80080344841
:1024A0000068401C32490860FFF744FA00BF314819
:1024B000006885423BD300BF2B480068006808B91C
:1024C000012000E0002020B14FF0FF3029490860D2
:1024D0002CE025480068C068C4686668B54202D22E
:1024E0002448066022E0201DFFF7ACFBA06A18B16B
:1024F00004F11800FFF7A6FB94F82C100120884087
:102500001D49096808431C490860E16A01EB810123
:102510001A4A02EB8100211DFFF722FC1849E06AEC
:102520000968C96A8842C7D30127C5E700BF1448B4
:102530000068C06A00EB8000104951F820000128B3
:1025400000D9012704E00F480068401C0D490860CD
:102550000D48006800B101273846BDE8F081000051
:102560005800002034000020240000202800002013
:102570004800002050000020380000205C010020AE
:1025800020000020400000204400002070B50646D6
:10259000F068C46804F11800FFF754FB15480068A0
:1025A000A8B9201DFFF74EFB94F82C10012088409D
:1025B00011490968084310490860E16A01EB81018B
:1025C0000E4A02EB8100211DFFF7CAFB04E004F173
:1025D00018010B48FFF7C4FB0A49E06A0968C96A99
:1025E000884204D9012501200749086000E0002540
:1025F000284670BD58000020380000205C010020F3
:10260000E8010020200000204400002070B50024D4
:102610000026FFF7B1FB2E480068401E2C490860D9
:102620000846006800284FD12A48006800284BD08F
:1026300024E02948C068C46804F11800FFF702FBD1
:10264000201DFFF7FFFA94F82C1001208840234941
:102650000968084321490860E16A01EB8101204AC9
:1026600002EB8100211DFFF77BFB1E49E06A096830
:10267000C96A884202D301201B49086016480068D5
:1026800008B9012000E000200028D2D00CB1FFF7EB
:1026900051F91648056865B100BFFFF7E9FE10B1B2
:1026A0000120114908606D1E002DF6D100200F4950
:1026B00008600D48006838B1012630070C490860F1
:1026C000BFF34F8FBFF36F8FFFF768FB304670BDCE
:1026D0005800002030000020E801002038000020D1
:1026E0005C01002020000020440000204000002069
:1026F00004ED00E02DE9FC4705460E4617469846D6
:10270000DDF828902820FFF7DFF904463CB1434666
:102710003A4631462846CDE90094FEF786FF20462A
:10272000BDE8FC871CB50024FEF728FE07480068BA
:1027300050B10748022100230A22CDE9001005A16B
:102740000648FFF749FE044620461CBD64000020F1
:1027500068000020546D7220537663002F1A000821
:102760002DE9FE4305460C4616461F46DDF8288037
:102770004FF000091448006810B3009401960295C8
:10278000062C15DAFFF758FE022808D1002342462E
:1027900069460D480068FFF79FFC814610E0002362
:1027A0001A46694608480068FFF796FC814607E02C
:1027B00000233A46694604480068FFF719FD814640
:1027C0004846BDE8FE8300006400002070B5044662
:1027D0002646FFF7D1FA706908B9012000E0002011
:1027E000012801D1002500E00125FFF7D7FA28468E
:1027F00070BD0000142800080000002094000000B4
:10280000000C0008A828000894000020BC4B000021
:10281000100C000800000000000000000000000094
:102820000102030401020304060708090204060862
:102830000000000000000000000000000000000098
:102840000000000000000000000000000000000088
:102850000000000000000000000000000000000078
:102860000000000000000000000000000000000068
:102870000000000000000000000000000000000058
:102880000000000000000000000000000000000048
:10289000000000000000000000000000AAAAAAAA90
:0828A000000000000000000030
:0400000508000131BD
:00000001FF
