:020000040800F2
:1000000000040020DF0100087502000877020008E4
:100010007B0200087F020008830200080000000045
:100020000000000000000000000000004501000882
:10003000870200080000000089010008B7210008BD
:10004000FF010008FF010008FF010008FF01000890
:10005000FF010008FF010008FF010008FF01000880
:10006000FF010008FF010008FF010008FF01000870
:10007000FF010008FF010008FF010008FF01000860
:10008000FF010008FF010008FF010008FF01000850
:10009000FF010008FF010008FF010008FF01000840
:1000A000FF010008FF010008FF010008FF01000830
:1000B000FF010008FF010008FF010008FF01000820
:1000C000FF010008FF010008FF010008FF01000810
:1000D000FF010008FF010008FF010008FF01000800
:1000E000FF010008FF010008FF010008FF010008F0
:1000F000FF010008FF010008FF010008FF010008E0
:10010000FF010008FF010008FF010008FF010008CF
:10011000FF010008FF010008FF010008FF010008BF
:10012000FF010008FF010008FF010008FF010008AF
:10013000DFF80CD002F0F2F8004800470D0200088A
:1001400040470020224B19680868B0E8F00F80F3A0
:100150000988BFF36F8F4FF0000080F311884EF0D5
:100160000D0E70470000000006480068006880F32C
:10017000088862B661B6BFF34F8FBFF36F8F00DFA1
:1001800000BF00BF08ED00E0EFF30980BFF36F8F01
:100190000F4B1A6820E9F00F106008B54FF0BF0050
:1001A00080F31188BFF34F8FBFF36F8F01F051FBC6
:1001B0004FF0000080F31188BDE808401968086816
:1001C000B0E8F00F80F30988BFF36F8F704700BF6E
:1001D0001C000020EFF305807047000070470848BE
:1001E0008047084981F3088807480047FEE7FEE793
:1001F000FEE7FEE7FEE7FEE7FEE7FEE7FEE7FEE7D7
:10020000DD01000840470020310100081CB500F066
:1002100033FF00F039F800F09BF80C48032100236D
:100220008022CDE900100AA10C4801F047F80C48E3
:10023000022100238022CDE900100AA10C4801F020
:100240003DF801F063FC00201CBD00000000002010
:10025000757365725F7461736B310000CF020008C3
:1002600004000020757365725F7461736B32000067
:10027000F7020008704700BFFEE700BFFEE700BFBF
:10028000FEE700BFFEE7704708B50121082000F037
:1002900065FCC020ADF8000010208DF8030003209D
:1002A0008DF802006946044800F0BCF9C0210248FC
:1002B00000F065FA08BD0000000C014001B502E045
:1002C0000098401E009000980028F9D108BD11E068
:1002D0004021124800F055FA1148FFF7EFFF402186
:1002E0000E4800F04CFA4FF47A6001F006FA0DA0C7
:1002F00002F026F8ECE710E08021084800F041FA0F
:100300000D48FFF7DBFF8021044800F038FA0A4867
:10031000FFF7D4FF09A002F013F8EDE7000C01404D
:10032000EFFF6F007461736B312069732073746128
:100330007274200D0A000000F0FF06007461736BF8
:1003400032206973207374617274200D0A000000FA
:1003500000B585B0012144F2040000F0FFFB4FF42A
:100360000070ADF8100018208DF8130003208DF8F0
:10037000120004A9754800F055F94FF48060ADF8FB
:10038000100004208DF8130004A9704800F04AF909
:100390004FF4E13000900020ADF80400ADF8060005
:1003A000ADF80800ADF80C000C20ADF80A00694665
:1003B000674800F080FC0121654800F0EAFC05B0C8
:1003C00000BD70B504460D46E1B2614800F049FD3C
:1003D00000BF5F48008800F080000028F9D0204668
:1003E00070BDF0B503460D461646002729460A2E75
:1003F00003D0002008702846F0BD33B9302001F842
:10040000010B002008702846F6E7002B03DA2D20A8
:1004100001F8010B5B4242F210720DE093FBF2F423
:1004200004B937B104F1300001F8010B04FB1233B9
:1004300001270A2092FBF0F2002AEFDC002008706E
:100440002846D9E70FB470B586B006460CA80190CF
:1004500073E00B9800785C281CD10B98401C0B9023
:1004600000786E2809D072280FD10D21304600F097
:10047000F8FC0B98401C0B900BE00A21304600F072
:10048000F0FC0B98401C0B9003E00B98401C0B9069
:1004900000BF4BE00B980078252840D10B98401CFA
:1004A0000B900078642818D0732833D1019810C8B5
:1004B00001900BE02178304600F0D3FC00BF4021D2
:1004C000304600F025FD0028F9D0641C2078002873
:1004D000F0D10B98401C0B9020E0019820C80190AF
:1004E0000A2202A92846FFF77CFF02AC0BE0217824
:1004F000304600F0B6FC00BF4021304600F008FD59
:100500000028F9D0641C20780028F0D10B98401CFA
:100510000B9003E00B98401C0B9000BF06E00B987B
:1005200010F8011B0B90304600F09BFC00BF4021EF
:10053000304600F0EDFC0028F9D00B980078002838
:1005400087D106B070BC5DF814FB000000080140C4
:100550000038014010B50446C649601A8C422FD0BD
:1005600009DCC548204480B1B0F5806F16D0B0F5E5
:10057000006F4AD11BE0B0F5806F2AD0B0F5006F54
:1005800030D0B0F5406F40D135E00121042000F0BB
:10059000FFFA0021042000F0FBFA37E001210820D7
:1005A00000F0F6FA0021082000F0F2FA2EE0012116
:1005B000102000F0EDFA0021102000F0E9FA25E00B
:1005C0000121202000F0E4FA0021202000F0E0FAD0
:1005D0001CE00121402000F0DBFA0021402000F067
:1005E000D7FA13E00121802000F0D2FA0021802008
:1005F00000F0CEFA0AE00121080200F0C9FA002159
:100600004FF4807000F0C4FA00E000BF00BF10BDDE
:1006100010B50121084600F0BBFA0021012000F0CE
:10062000B7FA10BD2DE9F041024600250026002052
:1006300000230024002791F803C00CF00F0591F867
:1006400003C00CF0100CBCF1000F03D091F802C0F5
:100650004CEA050591F800C0BCF1000F31D01468D8
:1006600000202BE04FF0010C0CFA00F3B1F800C0B1
:100670000CEA03069E4220D183004FF00F0C0CFAC7
:1006800003F7BC4305FA03FC4CEA040491F803C0E9
:10069000BCF1280F06D14FF0010C0CFA00FCC2F897
:1006A00014C00AE091F803C0BCF1480F05D14FF027
:1006B000010C0CFA00FCC2F810C0401C0828D1D371
:1006C0001460B1F800C0BCF1FF0F34DD54680020A5
:1006D0002EE000F1080C4FF0010808FA0CF3B1F815
:1006E00000C00CEA03069E4221D183004FF00F0C9C
:1006F0000CFA03F7BC4305FA03FC4CEA040491F836
:1007000003C0BCF1280F05D100F1080C08FA0CF861
:10071000C2F8148091F803C0BCF1480F07D100F172
:10072000080C4FF0010808FA0CF8C2F81080401CC1
:100730000828CED35460BDE8F0814FF6FF710180E8
:10074000022181700421C170704702460020936825
:100750000B400BB1012000E0002070470146886883
:1007600080B2704702460020D3680B400BB10120D5
:1007700000E0002070470146C86880B27047016100
:100780007047416170470AB1016100E04161704703
:10079000C16070474FF480320A4382618161826197
:1007A00082698269704702460020344B18684FF610
:1007B0008073184040EA02100843304B18607047BD
:1007C0002F49C8617047F0B50A4600230024002174
:1007D00000252A4E7168C0F3034583B200F4401629
:1007E000B6F5401F08D121F07061244E766826F0DE
:1007F0007066224F7E6012E000F48016B6F5801F0E
:1008000006D1032606FA05F4A14341F0706106E023
:10081000460D360103FA06F6B14341F0706122B18C
:10082000460D360103FA06F63143144E7160F0BDF1
:1008300030B500228B071C0F0F2303FA04F20F4B75
:1008400008338C1053F8243093430C4C08348D102B
:1008500044F8253023468C1053F824308C07240F9D
:1008600000FA04F42343054C08348D1044F8253075
:1008700030BD00000014014000F8FEBF0000014040
:1008800000002042DE48006840F00100DC490860BA
:1008900008464068DB490840D94948600846006876
:1008A000D9490840D64908600846006820F48020ED
:1008B00008600846406820F4FE0048600020886018
:1008C0007047CF49096821F48031CD4A1160114643
:1008D000096821F480211160B0F5803F03D0B0F5A4
:1008E000802F0ED106E0C649096841F48031C44A20
:1008F000116007E0C249096841F4A021C04A1160B3
:1009000000E000BF00BF704710B501460022002381
:1009100000204A11012A02D1B94C236806E0022ABC
:1009200002D1B74C236A01E0B54C636A01F01F02A3
:10093000012494401C400CB1012000E0002010BDB7
:1009400038B5002000900024002500BF3120FFF7BB
:10095000DBFF05460098401C00901DB90098B0F5DB
:10096000A06FF3D13120FFF7CFFF08B1012400E0E1
:100970000024204638BD01460020A14A106820F01E
:10098000F80040EAC10010607047A0490860704755
:10099000024600209A4B586820F47C1042EA01037A
:1009A0001843974B5860704798490866704701464E
:1009B0000020934A506820F00300084350607047BD
:1009C0008F48406800F00C007047014600208C4AB8
:1009D000506820F0F0000843506070470146002046
:1009E000874A506820F4E060084350607047014631
:1009F0000020834A506820F4605040EAC1005060F3
:100A0000704729B17E4A527A02437D4B5A7204E004
:100A10007B4A527A82437A4B5A7270477B49D8316B
:100A20000860704701460020754A506820F4404035
:100A30000843506070470021714A20321170704A9B
:100A400082F82010012802D004280AD104E00121F4
:100A50006B4A2032117005E00521694A203211707D
:100A600000E000BF00BF70476949086070476449F3
:100A7000096A0143624A1162704765494439086056
:100A8000704730B500210022002400235C4D6D68C2
:100A900005F00C0121B1042905D0082923D105E076
:100AA0005C4D056022E05B4D05601FE0544D6D68B4
:100AB00005F47012022505EB9242514D6D6805F464
:100AC00080341CB9544D554305600BE04C4D6D68A6
:100AD00005F400351DB1504D5543056002E04D4D04
:100AE0005543056002E04B4D056000BF00BF444D1B
:100AF0006D6805F0F0010909484D6B5C0568DD4043
:100B000045603F4D6D6805F4E061090A434D6B5C3B
:100B10004568DD4085603A4D6D6805F46051C90A4D
:100B20003E4D6B5C4568DD40C560354D6D6805F434
:100B30004041890B3A4D6B5CC568B5FBF3F5056127
:100B400030BD29B12E4A526902432D4B5A6104E04F
:100B50002B4A526982432A4B5A61704729B1284A6D
:100B600092690243264B9A6104E0254A92698243C6
:100B7000234B9A61704729B1214AD2690243204B25
:100B8000DA6104E01E4AD26982431D4BDA61704784
:100B900029B11B4AD2680243194BDA6004E0184AB3
:100BA000D2688243164BDA60704729B1144A126941
:100BB0000243134B1A6104E0114A12698243104B3D
:100BC0001A61704712494039086070470F49C8647C
:100BD00070470B49C87170470948406A40F08070FF
:100BE00007494862704701460020054A92680A405A
:100BF0000AB1012000E00020704701498872704767
:100C0000001002400000FFF8FFFFF6FE0000424225
:100C10008004424200127A0000093D0008000020D2
:100C20001800002010B50446D749601A8C422BD01A
:100C300006DCD648204498B1B0F5806F38D119E071
:100C4000B0F5806F2AD0B0F56C4F31D10121880307
:100C5000FFF79EFF00214FF48040FFF799FF28E047
:100C600001214804FFF7A1FF00214FF40030FFF7F6
:100C70009CFF1EE001218804FFF797FF00214FF43D
:100C80008020FFF792FF14E00121C804FFF78DFFD9
:100C900000214FF40020FFF788FF0AE0012108053A
:100CA000FFF783FF00214FF48010FFF77EFF00E085
:100CB00000BF00BF10BD2DE9F04786B005460E46C7
:100CC0000024A24600BF00BF00272F462C8A4CF606
:100CD000FF700440F08804432C82AC894EF6F31078
:100CE0000440B08831890843718908430443AC81CA
:100CF000AC8A4FF6FF400440B0890443AC8201A89F
:100D0000FFF7BFFEA248874202D1DDF810A001E044
:100D1000DDF80CA00AEBCA0000EB0A10316889006C
:100D2000B0FBF1F86420B8FBF0F004012009642165
:100D300001FB1089322000EB0910B0FBF1F000F04C
:100D40000F0004432C8106B0BDE8F0874FF4165124
:100D5000016000218180C18001810C21418100213D
:100D60008181704710B502460020108A4FF2FF03C0
:100D700018400B884C8823438C882343CC8823431A
:100D80001843108210BD0021018041808180C18004
:100D9000704721B1828942F40052828104E0828945
:100DA0004DF6FF731A4082817047F0B50346002468
:100DB0000026002500201846C1F3421401F01F064A
:100DC000012707FA06F5012C01D10C3004E0022CB2
:100DD00001D1103000E014301AB107682F430760CA
:100DE00002E00768AF430760F0BD1AB1838A0B4386
:100DF000838202E0838A8B4383827047028A4FF6A4
:100E0000F0731A400282028A0A4302827047828982
:100E10004FF2FF731A40828182890A4382817047B0
:100E200021B1828942F00202828104E082894FF678
:100E3000FD731A4082817047028A4FF6DF731A40B1
:100E40000282028A0A430282704721B1028A42F476
:100E50008042028204E0028A4BF6FF731A4002824B
:100E60007047C1F308028280704701468888C0F34A
:100E700008007047818941F0010181817047028B30
:100E8000D2B20283028B42EA012202837047028BB4
:100E900002F47F420283028B0A430283704721B12E
:100EA000828A42F02002828204E0828A4FF6DF7357
:100EB0001A408282704721B1828A42F010028282F7
:100EC00004E0828A4FF6EF731A408282704721B1A4
:100ED000828A42F00802828204E0828A4FF6F77327
:100EE0001A4082827047828A4FF6FB731A408282D0
:100EF000828A0A438282704721B1828A42F00202CA
:100F0000828204E0828A4FF6FD731A408282704723
:100F10000246002013880B400BB1012000E00020A6
:100F20007047CA430280704770B502460B460024E2
:100F3000002100250020C3F3421503F01F01012604
:100F400006FA01F1012D02D19689314006E0022D09
:100F500002D1168A314001E0968A31401C120126E6
:100F600006FA04F41688344011B10CB1012000E0F7
:100F7000002070BD10B5002200230A120124944005
:100F8000A3B2DC43048010BD004C004000BCFFBF96
:100F9000003801400CB500200190009047480068DF
:100FA00040F480304549086000BF4448006800F4C0
:100FB000003000900198401C0190009818B90198E9
:100FC000B0F5A06FF1D13D48006800F4003010B1D9
:100FD0000120009001E0002000900098012844D1F9
:100FE0003748006840F0100035490860084600683E
:100FF00020F0030008600846006840F00200086026
:101000002E4840682D4948600846406848600846B8
:10101000406840F4806048600846406820F47C10D6
:1010200048600846406840F4E81048600846006898
:1010300040F08070086000BF2048006800F0007039
:101040000028F9D01D48406820F003001B49486083
:101050000846406840F00200486000BF17484068FA
:1010600000F00C000828F9D101E000BFFEE70CBD3C
:1010700010B5FFF78FFF10BD10B51048006840F0A5
:1010800001000E490860084640680E4908400B49B7
:101090004860084600680C4908400849086008464E
:1010A000006820F4802008600846406820F4FE00B4
:1010B000486000208860FFF7DBFF10BD0010024091
:1010C000002002400000FFF8FFFFF6FE00F10801DB
:1010D00041604FF0FF31816000F10801C1600161A2
:1010E00000210160704700210161704742684A6039
:1010F00093688B60936859609160086103685B1C1A
:101100000360704710B502460B685C1C0CB910698F
:1011100007E002F1080000E04068446824689C424F
:10112000FAD944684C604C68A160886041600A61EB
:101130001468641C146010BD01460A69D1E90130CD
:101140009860D1E9010358605068884201D18868ED
:101150005060002008611068401E106010687047E1
:1011600010B5002407E004EB8401FE4A02EB810085
:10117000FFF7ACFF641C052CF5D3FB48FFF7A6FF77
:10118000FA48FFF7A3FFFA48FFF7A0FFF948FFF777
:101190009DFFF948FFF79AFFF348F8490860F348C4
:1011A000F749086010BD10B5044600F0E7FFF548A8
:1011B0000068401CF3490860F348006840B9F248F1
:1011C00004600846006801280DD1FFF7C9FF0AE056
:1011D000EE48006838B9EC480068C06AE16A8842A5
:1011E00001D8E9480460EA480068401CE849086002
:1011F00094F82C1001208840E64909680843E54925
:101200000860E16A01EB8101D64A02EB8100211DF1
:10121000FFF76CFF00F0C1FFDC48006868B1DA48F6
:101220000068C06AE16A884207D24FF08050DA490C
:101230000860BFF34F8FBFF36F8F10BD2DE9FF5FC5
:1012400080460E469146DDE90E7A109CA9F1010018
:10125000216B01EB800B2BF0070B002507E0715D84
:1012600004F134004155705D00B902E06D1C102D91
:10127000F5D300BF002143200155052F00D30427DB
:10128000E762201DFFF72FFF04F11800FFF72BFF87
:101290002461C7F10500A06164620020606484F8E5
:1012A000480041465846039A00F039FF2060BAF1E1
:1012B000000F01D0CAF80040BDE8FF9F2DE9FF4FA5
:1012C00085B0804689461746DDE912ABB80000F0CC
:1012D000A8FF064656B14C2000F0A3FF04460CB10F
:1012E000266304E0304600F0EFFF00E000247CB10C
:1012F0000020CDE900ABCDE902403A4649464046E0
:10130000089BFFF79BFF2046FFF74DFF012501E0FB
:101310004FF0FF35284609B0BDE8F08F97490968BE
:10132000096809B9012100E0002121B14FF0FF3126
:101330009A4A116006E091490968C968C868974AE5
:1013400041681160704710B50446206B00F0BCFF87
:10135000204600F0B9FF10BD70B5054600F00EFF45
:1013600015B98948006800E028460446201DFFF7AB
:10137000E3FE78B9E06A00EB80007A4951F820007A
:1013800040B994F82C1001208840824909688143B3
:1013900080480160A06A18B104F11800FFF7CCFE84
:1013A0007B480068401C7A4908607748006884429E
:1013B00009D1211D6F48FFF799FE79480068401C4C
:1013C0007749086009E06F480068401E6D49086071
:1013D0002046FFF7B8FFFFF7A1FF00F0DEFE6B48E5
:1013E000006858B168480068844207D14FF08050C7
:1013F00069490860BFF34F8FBFF36F8F70BD2DE950
:10140000F041002767480068002863D166480068FB
:10141000451C654805608DB95848D0F8008058488B
:101420000068564908605648C0F800805F48006868
:10143000401C5E490860FFF771FF00BF5748006815
:1014400085423BD300BF4D480068006808B90120C1
:1014500000E0002020B14FF0FF30504908602CE040
:1014600046480068C068C4686668B54202D24B4806
:10147000066022E0201DFFF75FFEA06A18B104F1AC
:101480001800FFF759FE94F82C10012088404149BC
:10149000096808433F490860E16A01EB8101314A6C
:1014A00002EB8100211DFFF721FE3749E06A096840
:1014B000C96A8842C7D30127C5E700BF3248006820
:1014C000C06A00EB8000274951F82000012800D9AC
:1014D000012704E036480068401C3549086035485B
:1014E000006800B101273846BDE8F08170B50024DE
:1014F000002600F043FE2B480068401E2949086082
:101500000846006800287BD11E480068002877D074
:1015100024E01748C068C46804F11800FFF70CFE07
:10152000201DFFF709FE94F82C100120884019496E
:101530000968084317490860E16A01EB8101094A1B
:1015400002EB8100211DFFF7D1FD0F49E06A096818
:10155000C96A884202D3012016490860044800681D
:1015600050BB2AE078000020DC000020F0000020C2
:1015700004010020180100202C0100202000002080
:10158000240000202C0000201C0000203800002037
:10159000480000203400002004ED00E04C00002052
:1015A00028000020540000203000002044000020CB
:1015B0003C0000204000002001E0012000E000206D
:1015C0000028A6D00CB1FFF7A9FEFE48056865B15A
:1015D00000BFFFF714FF10B10120FB4908606D1E2A
:1015E000002DF6D10020F7490860F748006838B1AF
:1015F00001263007F5490860BFF34F8FBFF36F8FA7
:1016000000F0CBFD304670BD2DE9F04105460E4699
:10161000EF480768EF480068001DFFF78DFD50B9DF
:10162000EC48006890F82C1001208840EA490968CD
:101630008143E9480160681C38B936B1E548016862
:10164000091DE648FFF752FD1AE07C19E1480068E1
:101650004460BC4207D2DF480168091DE0480068C9
:10166000FFF750FD0CE0DB480168091DDD4800680C
:10167000FFF748FDDC480068844201D2DA48046084
:10168000BDE8F081D9480068401CD849086070471F
:101690002DE9F047044688464FF00009FFF7F2FFB6
:1016A000CB480668206800EB08052068B04207D9DF
:1016B0002068A8420BD9B54209D94FF0010906E0CC
:1016C0002068A84201D8B54201D94FF00109256030
:1016D000B9F1000F03D0A81B0021FFF795FFFFF71A
:1016E00005FF07463FB94FF08050B8490860BFF387
:1016F0004F8FBFF36F8FBDE8F08770B504460025AC
:1017000044B1FFF7BFFF00212046FFF77DFFFFF741
:10171000EDFE05463DB94FF08050AC490860BFF37F
:101720004F8FBFF36F8F70BD70B5044600F026FD7C
:1017300014B9A848006800E020460646F56A00F0A3
:101740002CFD284670BD70B5024600BFBF25EFF3E3
:10175000118485F31188BFF34F8FBFF36F8F00BFE4
:10176000214612B99B4C246800E014462346D86AEF
:1017700000BF81F3118800BF70BD2DE9F04780469E
:101780000D464FF00009052D00D3042500F0F6FCAE
:10179000B8F1000F02D18F48006800E040460446CF
:1017A000E66AAE4251D0B5420BD98A4800688442FD
:1017B0000DD088480068C06AA84208D84FF00109D7
:1017C00005E084480068844201D14FF00109E76ACE
:1017D000E562A06900F0004010B9C5F10500A06104
:1017E00007EB8701824A02EB81016069884201D1DF
:1017F000012000E00020E0B1201DFFF79DFC30B982
:101800000120B8407449096881437348016094F825
:101810002C10012088407049096808436E4908600F
:10182000E16A01EB8101724A02EB8100211DFFF7A1
:101830005DFCB9F1000F07D04FF08050634908609C
:10184000BFF34F8FBFF36F8F00BF00F0A6FCBDE862
:10185000F0876648006818B101205B4908601DE008
:101860000020594908605C480068B0FA80F0C0F177
:101870001F0101EB81025E4B03EB8200426852685C
:10188000426000F108024368934202D14268526804
:1018900042604268D2684F4B1A6000BF704770B513
:1018A000054600F06BFC15B94A48006800E0284680
:1018B0000446201DFFF740FC78B9E06A00EB800089
:1018C0004B4951F8200040B994F82C100120884071
:1018D00041490968814340480160A06A18B104F198
:1018E0001800FFF729FC211D3C48FFF7FFFB94F887
:1018F0004800012802D1002084F8480000F04DFC87
:101900003C48006828B100F039FCFFF707FD00F003
:1019100044FC30480068844217D13648006840B122
:101920004FF0805029490860BFF34F8FBFF36F8F8E
:101930000BE02A48006830490968884203D100203A
:101940002449086001E0FFF784FF70BD10B501462F
:1019500000200A46214C5369A34201D1012300E033
:10196000002373B1254C936AA34201D1012300E007
:10197000002333B9936A0BB9012300E0002303B1BC
:10198000012010BD70B505462C46124800688442FF
:101990004CD0B4B100F0F2FB2046FFF7D7FF78B38C
:1019A000201DFFF7C9FB94F82C10012088400A493C
:1019B0000968084308490860E16A01EB81010C4AA3
:1019C0001FE033E03C0000204000002004ED00E078
:1019D000300000201C000020340000202C010020DA
:1019E00024000020200000204C0000205400002093
:1019F00078000020380000202C0000200401002086
:101A000012E002EB8100211DFFF770FBFE49E06A46
:101A10000968C96A884207D34FF08050FB490860C3
:101A2000BFF34F8FBFF36F8F00F0B7FB70BD2DE991
:101A3000F04106460027344600BFBF21EFF3118076
:101A400081F31188BFF34F8FBFF36F8F00BF05463F
:101A50002046FFF77BFF20B3ED480068E0B9EA4974
:101A6000E06A0968C96A884200D30127201DFFF790
:101A700063FB94F82C1001208840E649096808436C
:101A8000E4490860E16A01EB8101E34A02EB81006D
:101A9000211DFFF72BFB04E004F11801DF48FFF7DD
:101AA00025FB00BF85F3118800BF3846BDE8F081F3
:101AB00010B516E000F062FBD948C068C468201D6C
:101AC000FFF73AFBD7480068401ED6490860D64861
:101AD0000068401ED449086000F05FFB2046FFF715
:101AE00032FCD14800680028E4D110BD00BFFFF7E8
:101AF000DFFFC94800680128F9D94FF08050C34979
:101B00000860BFF34F8FBFF36F8FF0E71CB5C74876
:101B100000210B468022CDE90010C5A1C648FFF781
:101B2000CDFB0446012C14D100BFBF2080F31188E7
:101B3000BFF34F8FBFF36F8F00BF4FF0FF30BF4930
:101B400008600120BE4908600020BE49086000F01E
:101B5000FFFA1CBD10B500BFBF2080F31188BFF392
:101B60004F8FBFF36F8F00BF0020B549086000F0B2
:101B700004FB10BDB349086870470021B14A1068E2
:101B80007047A84800687047014611B99E48006830
:101B900000E00846024602F13400704770B5054681
:101BA0000C469948016818312846FFF7ABFA012125
:101BB0002046FFF729FD70BD70B506460C46154658
:101BC00044F000409049096888618F4801681831E5
:101BD0003046FFF78BFA01212846FFF715FD70BD4F
:101BE00070B50646F068C46804F11800FFF7A4FA5F
:101BF00087480068A8B9201DFFF79EFA94F82C10BA
:101C00000120884083490968084382490860E16AE5
:101C100001EB8101804A02EB8100211DFFF766FA8A
:101C200004E004F118017D48FFF760FA7649E06AA4
:101C30000968C96A884204D90125012082490860DF
:101C400000E00025284670BD70B505460E4646F0FA
:101C500000402860EC682846FFF76EFA201DFFF769
:101C60006BFA94F82C10012088406A4909680843EF
:101C700068490860E16A01EB8101674A02EB810073
:101C8000211DFFF733FA6049E06A0968C96A884292
:101C900002D901206C49086070BD10B5044600F0FF
:101CA0006DFA6A480068206066480068606000F06D
:101CB00074FA10BD654909680160624909684160AC
:101CC000704770B506460C4600F058FA5D48026849
:101CD0007068131A2068401C08B9002517E05B499A
:101CE00030680968884204D07068904201D80125A4
:101CF0000DE02068984207D92068C01A206030465D
:101D0000FFF7D8FF002502E000202060012500F049
:101D100044FA284670BD01204B49086070473A4993
:101D20000868704738490968886937490968C96A85
:101D3000C1F10501344A12689161704770B50646D9
:101D40000D4600F01BFA30480068406C88B901204D
:101D50002D49096881F848005DB101212846FFF747
:101D600053FC4FF0805029490860BFF34F8FBFF3F9
:101D70006F8F00F012FA00F001FA23480068446CFB
:101D80004CB126B1002020490968486403E0601E78
:101D90001D490968486400201B49096881F848000A
:101DA00000F0FBF9204670BD2DE9F041074688465A
:101DB00014461D4600F0E2F91348006890F8480008
:101DC000022818D01049096801F14400496CB94350
:101DD000016001200C49096881F848005DB10121CA
:101DE0002846FFF711FC4FF0805008490860BFF308
:101DF0004F8FBFF36F8F00F0D0F900F0BFF93CB305
:101E000001480068406C24E01C00002004ED00E064
:101E1000540000203400002078000020040100203D
:101E2000180100202C000020280000205000002075
:101E300049444C4500000000ED1A00084C00002009
:101E40003800002030000020400000204400002026
:101E500000E02060A548006890F84800022801D002
:101E6000002608E0A149096801F14400496C21EA13
:101E700008010160012600209C49096881F848009A
:101E800000F08BF93046BDE8F0812DE9F04781463E
:101E90000D4616461F464FF0010A4C4600F06EF9FB
:101EA0000FB1606C386094F84880022084F84800D4
:101EB000052E17D2DFE806F01503070B0D00606C46
:101EC000284360640FE0606C401C60640BE0656454
:101ED00009E0B8F1020F01D0656401E04FF0000A9B
:101EE00001E000E000BF00BFB8F1010F22D1201DCA
:101EF000FFF722F994F82C10012088407C490968EA
:101F000008437B490860E16A01EB8101794A02EBF1
:101F10008100211DFFF7EAF87449E06A0968C96A7F
:101F2000884207D94FF0805073490860BFF34F8F44
:101F3000BFF36F8F00F031F95046BDE8F0872DE90F
:101F4000F84F82460D4616461F46DDF828B00120A0
:101F50000090544600BFBF21EFF3118081F3118838
:101F6000BFF34F8FBFF36F8F00BF81460FB1606C1F
:101F7000386094F84880022084F84800052E17D273
:101F8000DFE806F01503070B0D00606C2843606462
:101F90000FE0606C401C60640BE0656409E0B8F120
:101FA000020F01D0656401E00020009001E000E034
:101FB00000BF00BFB8F1010F2CD150480068A8B98C
:101FC000201DFFF7B9F894F82C10012088404849EB
:101FD0000968084346490860E16A01EB8101454A06
:101FE00002EB8100211DFFF781F804E004F11801E4
:101FF0004348FFF77BF83D49E06A0968C96A8842AF
:1020000008D9BBF1000F02D00120CBF8000001205D
:102010003C49086000BF89F3118800BF0098BDE803
:10202000F88F2DE9F04105460E462C4600BFBF2132
:10203000EFF3118081F31188BFF34F8FBFF36F8FE0
:1020400000BF074694F84880022084F84800606C7E
:10205000401C6064B8F1010F29D128480068A8B974
:10206000201DFFF769F894F82C10012088402049C2
:10207000096808431E490860E16A01EB81011D4AB5
:1020800002EB8100211DFFF731F804E004F1180193
:102090001B48FFF72BF81549E06A0968C96A8842AE
:1020A00005D90EB10120306001201649086000BF3B
:1020B00087F3118800BFBDE8F08170B5054615B9FA
:1020C0000A48006800E02846064600F057F896F8EF
:1020D0004800022804D1002086F84800012400E0CE
:1020E000002400F05AF8204670BD00001C000020BB
:1020F000340000207800002004ED00E054000020AF
:10210000040100204000002000BFBF2080F31188A0
:10211000BFF34F8FBFF36F8F00BF00BFFEE7001FFD
:102120004FF080730360001F21F001030360001F64
:102130002D4B0360143802602038704700204FF0A8
:10214000E0210861886129484861072008617047DB
:1021500010B52748006840F47F002549086008460C
:10216000006840F07F400860FFF7E8FF0020214949
:102170000860FDF7F9FF002010BD704700BFBF20C9
:1021800080F31188BFF34F8FBFF36F8F00BF1948E3
:102190000068401C17490860704716480068401ED8
:1021A000144908600846006820B9002080F31188AF
:1021B00000BF00BF704710B500BFBF2080F311887B
:1021C000BFF34F8FBFF36F8F00BFFFF718F920B138
:1021D0004FF0805006491C39086000BF002080F392
:1021E000118800BF10BD0000092100083F1901003F
:1021F00020ED00E058000020434A22F00700434A47
:1022000010600022414B5A6044F2F832404B5A6051
:1022100000221A60014644F2F8324A601A460A6007
:1022200070472DE9F04104464FF00008FFF72AFA05
:102230003848006820B9FFF7DFFF01203549086002
:1022400044B1083404F0070020B104F00700C0F1E5
:1022500008000444002C32D044F2F83084422ED2DC
:102260002A4F3846056801E02F462D686868A0426D
:1022700002D228680028F7D1254885421FD0386847
:1022800000F10808286838606868001B102810D919
:102290002E196868001B70606C6071681B4800E054
:1022A0000068026852688A42FAD3026832600660A7
:1022B00000BF194968680968081A17490860FFF7DC
:1022C00015F94046BDE8F08170B506463546B6B111
:1022D000083D2C46FFF7D6F961680C4800E000681D
:1022E000026852688A42FAD30268226004600A498E
:1022F00060680968084408490860FFF7F7F870BD8E
:102300000548006870477047480100205C000020C5
:1023100064000020700000206C000020064C074D77
:1023200006E0E06840F0010394E8070098471034A5
:10233000AC42F6D3FDF700FF90230008B02300085D
:10234000014A024900F013B8C303000874000020DA
:1023500002E008C8121F08C1002AFAD1704770476E
:10236000002001E001C1121F002AFBD170472DE9B6
:10237000F04116460F460446002503E03946B047B3
:10238000641C6D1C20780028F8D12846BDE8F08137
:10239000B02300080000002078000000502300084F
:1023A0002824000878000020C846000060230008A8
:1023B0000000000000000000000000000102030413
:1023C00001020304060708090204060800000000D1
:1023D00000000000000000000000000000000000FD
:1023E00000000000000000000000000000000000ED
:1023F00000000000000000000000000000000000DD
:102400000000000000000000AAAAAAAA0000000024
:10241000000000000000000000000000F843000081
:082420000000000000000000B4
:04000005080001DF0F
:00000001FF
